:10039D00010D01011400010C00011B0001130101ED
:1003AD000E00011100020F000001120004170000E1
:0B03BD00000004080000000001150013
:1003ED00538E7F5389F0438901758AA0758C15C290
:0A03FD008DD28CD2A9D2AFC2B92272
:10000E007592BF75914F75B204E4F5B1D290D2914D
:10001E00D292D293D2B2C294C295C2977FD07E07AB
:10002E001202E52096157B007A00790D7521007578
:10003E0022017F407E0012036C8006309603750D00
:10004E0001AF0D120228E50D64057002F50DB29494
:10005E007FB87E0B1202E5B294E4F51512019EE410
:10006E00F50FF510D2B2E512640370F0F512D294CA
:10007E00D295C2B2C2B212019EE4F50FF510E5128E
:10008E006402706CF5121203EDF51AF519F518F5F8
:10009E0017751501D2B2E47FBC7E02FDFCAB1AAA25
:1000AE0019A918A817D31203244017E4F51AF51945
:1000BE00F518F517F51AF519F518F517C2B2F51268
:1000CE0080B212019EE4F50FF510E5126402700283
:1000DE00F512E512640170B9F512D2B2050DAF0D2D
:1000EE00120228850D16E516640570A5F50D80A182
:1000FE00E51264036003020082F512C294C295D227
:04010E00B2020067D2
:10019E0020960302022730962B0510E510700205FB
:1001AE000F7F147E001202E5E5106464450F7002A5
:1001BE00B2B2E51064FA450F70DCE51570D8B29452
:1001CE00B29580D2D3E51094FAE50F9400400AE47C
:1001DE00F511F50FF510751203C3E5109464E50FD4
:1001EE0094004015D3E51094C7E50F9400500AE42F
:1001FE00F511F50FF510751202C3E5109405E50F14
:10020E0094004015D3E5109455E50F9400500AE480
:0A021E00F511F50FF510751201221D
:03000B000203C924
:1003C900C0E0C0D0758A40758CA2E51A2401F51ADF
:1003D900E43519F519E43518F518E43517F517D08A
:0403E900D0D0E0325E
:1002B200C2B27FFA7E001202E5D2B27FFA7E00124B
:1002C20002E5C2B27FFA7E001202E5D2B27FFA7E66
:1002D200001202E5C2B27FFA7E001202E5D2B27FBC
:0302E200FA7E00A1
:1002E500EF4E600F7D207C28DCFEDDFCEF1F70F0FB
:0302F5001E80ED7B
:0102F80022E3
:07000300D294D295C2B22293
:07048200C294C295D2B22220
:0E045C0012019EE51264027004F512D2B22263
:020228008F1C29
:10022A00E51C24FE601B1460291460371460442402
:10023A00047074120478D290D291D292D2930202AC
:10024A008E120478C290D291D292D2931202D6021E
:10025A00028E120478D290C291D292D2931202C420
:10026A0002028E120478D290D291C292D2931202D2
:10027A00B28011120478D290D291D292C293120211
:10028A00B21202D61202D6120478851C1D7F407E55
:10029A00001204387B007A00791D75230075240149
:0702AA007F407E00120335C6
:0102B100222A
:030495008F25228E
:01000A0022D3
:04048900751B0122BC
:04048D00E4F51B2255
:10044B00E50C700612048202048912000312048D5B
:01045B00227E
:10042000E5136402700E050E750E10F51AF519F538
:0804300018F51722E4F50E2275
:0A047800E4F51AF519F518F517223E
:0404910075130122BC
:0E046A00E4F5C7F5C5F5C675C3FF75C4FF22DE
:060407008CC3AF058FC499
:10040D00A2AF92D5C2AF75C65A75C6A50000A2D5CA
:03041D0092AF2279
:10036C00AD07AC0675C78075F51875C50112040785
:10037C00E5C21203120DBD00010C740129F9E43A17
:10038C00FAE52215227002152114452170DF0204B2
:01039C006AF6
:10043800AD07AC0675C78075F51875C503120407B6
:0304480002046A41
:10033500AD07AC0675C78075F51875C5028CC3AFDA
:10034500058FC41202F9F5C212040D0DBD00010C92
:10035500740129F9E43AFAE52415247002152314E9
:07036500452370D902046A70
:03000000020112E8
:0C011200787FE4F6D8FD758125020159C4
:1002F900BB010689828A83E0225002E722BBFE0203
:09030900E32289828A83E4932235
:10031200BB010689828A83F0225002F722BBFE01CA
:02032200F322C4
:10032400EB9FF5F0EA9E42F0E99D42F0E89C45F02F
:0103340022A6
:10011E0002000EE493A3F8E493A34003F68001F2E9
:10012E0008DFF48029E493A3F85407240CC8C333E2
:10013E00C4540F4420C8834004F456800146F6DFB1
:10014E00E4800B010204081020408090039DE47EA1
:10015E00019360BCA3FF543F30E509541FFEE493A6
:10016E00A360010ECF54C025E060A840B8E493A36D
:10017E00FAE493A3F8E493A3C8C582C8CAC583CA98
:10018E00F0A3C8C582C8CAC583CADFE9DEE780BE50
:0103C8000034
:00000001FF
